:1000000012C024C023C022C021C020C01FC01EC0F7
:100010001DC01CC01BC01AC019C018C017C016C014
:1000200015C014C013C011241FBECFE5D4E0DEBF3D
:10003000CDBF10E0A0E6B0E0EAE8F1E002C0059034
:100040000D92AC37B107D9F726D09DC0D9CF8BBB65
:100050009698959A84ED90E30197F1F782B3807CAE
:1000600082BB1BBA08958BBB969A959A84ED90E358
:100070000197F1F782B3807C82BB1BBA0895CF93BE
:10008000DF93EC0102C02196EEDF88811816DCF3C5
:10009000DF91CF9108950F931F93CF93DF938FEF4D
:1000A00087BB81BB1ABA04ED10E3C8010197F1F7D1
:1000B00081E0CDDFC8010197F1F788E3C8DFC8010F
:1000C0000197F1F78FE0C3DF80E690E0D8DF80ECA6
:1000D000BEDFC0E0D0E008ED16EDC89B07C08CE69F
:1000E00090E0CDDFC8010197F1F72196C99B07C0C9
:1000F0008EE690E0C4DFC8010197F1F72196CA9B14
:1001000007C080E790E0BBDFC8010197F1F72196B7
:10011000CB9B07C082E790E0B2DFC8010197F1F7FF
:100120002196CC9B07C084E790E0A9DFC801019726
:10013000F1F72196CD9B07C086E790E0A0DFC801CC
:100140000197F1F72196CE9B07C088E790E097DFF3
:10015000C8010197F1F72196CF9B07C08AE790E08D
:100160008EDFC8010197F1F72196C031D10509F062
:10017000B4CF81E06CDF80E690E081DF80EC67DF68
:0A018000C0E0D0E0AACFF894FFCF52
:10018A0050524553532041204B455900310032000B
:0C019A0033003400350036003700380018
:00000001FF
